:020000020000FC
:0C0000000C9488040C9424040C943A0422
:04005C000C945004AC
:1000B4000C9476045F936F930F936F9301E08DD04C
:1000C4009CD003E491D099D005E78ED096D002E776
:1000D4008BD093D002E788D090D005E685D08DD020
:1000E4000EE682D08AD004E77FD087D000E27CD0AD
:1000F40084D006E679D081D00CE676D07ED00FE6A7
:1001040073D07BD00FE670D078D002E76DD075D075
:1001140000E26AD072D010910C024DD000EC5DD098
:100124006CD00EE461D069D005E65ED066D008E7F5
:100134005BD063D004E758D060D000E255D05DD0E6
:1001440003E752D05AD004E74FD057D00FE64CD033
:1001540054D000E749D051D000E246D04ED060914F
:100164000E02603099F01091000225D000E23CD0DC
:1001740044D000E239D041D060910D02603099F052
:1001840016C06F910F916F915F9108950DE22CD07D
:1001940034D000E229D031D000E226D02ED00DE2B6
:1001A40023D02BD0EECF05E51FD027D0EACF04E42F
:1001B4001BD023D0E6CF0F931F931A303CF001E3FA
:1001C40013D01BD000E310D018D004C000E3010FFB
:1001D4000BD013D01F910F91089501BB1FD0169A15
:1001E4001DD016981BD0089501BB179A17D0169AE4
:1001F40015D0169813D0179808950F93002700BBB5
:1002040001BB159A0BD0169A09D00FB1169807FDA9
:10021400F9CF15980FEF00BB0F9108958F939F931B
:100224009FE08CE90197F1F79F918F910895F6DF94
:10023400F5DFF4DFF3DFF2DF0895BF93AF93DF93CD
:10024400CF93BB27AA27A817B90758F4DD27CC27D3
:10025400C817D90720F4219600000000F9CF1196A1
:10026400F2CFCF91DF91AF91BF910895FF93EF93B8
:100274006F930F931F93F2E0E0E011E06627609321
:100284007200319600910E02101729F0608162937A
:1002940032961395F9CF0A9500930E0286D00ADFA1
:1002A40061E0609372001F910F916F91EF91FF9144
:1002B40008951F932F933F934F935F936F93BF932F
:1002C400AF93DF93CF93A0900E022A2D50900C028F
:1002D40060900D0210E0812E12E0912E1127662706
:1002E4006B2D65196FB76695669566956695617011
:1002F400B92DA82DC82DD92D1124CA0DD11D1A151B
:1003040024F53D915527532F55195FB756955695AA
:10031400569556955170561739F4B31609F153167C
:1003240091F0513039F003C0661639F00CC0B316A1
:1003340054F403C03B153CF400C0121734F44A9142
:1003440049832A95FACF1395DACF9927A91621F074
:100354001A1511F0BE9201C0BC92A394A0920E0291
:10036400CF91DF91AF91BF916F915F914F913F9189
:100374002F911F9108956F935F932F9360910002C3
:1003840050910C0220910D02203039F0213049F0B7
:1003940034D02F915F916F910895539550930C022F
:1003A400F7CF5A9550930C02F3CF6F935F932F932B
:1003B4006091000250910C02561734F0651744F016
:1003C4002F915F916F91089520E020930D02F8CF53
:1003D40021E020930D02F4CF8F939F936F9388E7CE
:1003E40092E02BDF662768B964BB88E792E025DFDB
:1003F40004D06F919F918F910895CF93DF93FF92D3
:100404000F931F932F933F93CDB7DEB71127222766
:10041400002718B914BBF0900C020F1541F0110F0E
:10042400139510F00395F9CF220F2395FBCF18B93C
:1004340024BB3FEF37B933BB3F912F911F910F91ED
:10044400FF90DF91CF91089500910E02003009F1E1
:1004540061E060936E00CAE0D2E066276993688326
:100464003090000250910C025315D1F76627609327
:100474006E00CAE0D2E0662769936883F7DE1ED077
:1004840061E060936E00CAE0D2E0662769936883F6
:10049400DBCF662760936E00CAE0D2E066276993DB
:1004A400688300910E020030E1F361E060936E0016
:1004B400CAE0D2E0662769936883C6CFCF93DF93FF
:1004C4006F931F937F934F933F934427332711E0F8
:1004D40010930F0213E373E310939A0070939B003D
:1004E40061E06093910061E26093900075DF74DFD6
:1004F4006627609391006093900060939A006093E4
:100504009B0060911002603031F062E060930F0252
:100514006627609310026DB361606DBB6DB362605A
:100524006DBB36302CF458DF0C94D1023395F9CFDF
:1005340061E0609310021CEC7CEC10939A007093C1
:100544009B0061E06093910061E26093900044DF5E
:100554004130E9F141DF4130D1F1662760939100E8
:100564006093900060939A0060939B0060911002E6
:10057400603031F062E060930F02662760931002EE
:100584006DB36E7F6DBB6DB36D7F6DBB44273F91C3
:100594004F917F911F916F91DF91CF9108954130D9
:1005A40021F0423081F00C949802442788EB91E0CA
:1005B40044DE69B16270623061F069B162706230C8
:1005C40021F00ADFFACF4427B3CF0C949A020C949B
:1005D400670230E00C9493026627609372006DB357
:1005E4006E7F6DBB6DB36D7F6DBB00910F020130EB
:1005F400B9F56627609391006093900060939A0028
:1006040060939B0060911002603031F062E060936F
:100614000F0266276093100261E0609310021CECE5
:100624007CEC10939A0070939B0061E060939100BE
:1006340061E260939000D0DECFDE66276093910084
:100644006093900060939A0060939B006091100205
:10065400603031F062E060930F026627609310020D
:1006640061E060936E00CAE0D2E066276993688314
:1006740001E00093000200930E0297DE1BDD88EB7D
:1006840091E07894119AD9DD1198D7DD50910C023C
:100694005130C1F7662760936E00CAE0D2E0662746
:1006A4006993688301E099DDA8DD05E49DDDA5DD9E
:1006B4000DE69ADDA2DD05E697DD9FDD02E794DD18
:1006C4009CDD07E691DD99DD05E68EDD96DD0EE61F
:1006D4008BDD93DD03E688DD90DD09E785DD8DDDC7
:1006E40000EC7BDD8ADD03E47FDD87DD01E67CDD74
:1006F40084DD0CE679DD81DD0CE676DD7EDD04E16A
:100704006CDD7BDD00E370DD78DD00E36DDD75DD40
:1007140000E36ADD72DD0CE060DD6FDDCFDE119A8F
:1007240000273FEE882730930B010FEF0A95F1F76E
:10073400009109010F700F3079F031E01127402F3B
:10074400432331F4803059F7133049F70C94B5033F
:100754001395330F0C94A103833009F30894331FCA
:1007640083950C9495030C9488040F931F938F9393
:100774003F934F937F936F93AF9300273FEE882768
:1007840030930B010FEF0A95F1F7009109010F70F7
:100794000F3061F031E01127402F432319F417D0B3
:1007A4000C94DF031395330F0C94CE03833029F09C
:1007B4000894331F83950C94C2031198AF916F91E1
:1007C4007F914F913F918F911F910F9108958F9336
:1007D4001F930F934F933F937F93AF935F926F92C7
:1007E4008F929F92AF92BF928330C9F0133099F0E9
:1007F400012F000F010F080F0395B02E00910C027A
:100804000B1521F056DDD1DD55DC09C000910F0236
:100814000230C1F304C0803099F0813071F0BF9090
:10082400AF909F908F906F905F908F911F913F91A9
:100834004F910F917F91AF9108950AE00C94FF03BB
:100844000C94EE026F936FB76F938F939F938CED1D
:1008540090E0F3DC69B16170613009F042E06CB39F
:1008640061606CBB9F918F916F916FBF6F91189571
:100874006F936FB76F938F939F938CED90E0DDDC54
:1008840069B16270623009F041E06CB362606CBBC4
:100894009F918F916F916FBF6F9118956F936FB701
:1008A4006F93DF93CF938F939F9380910A029091DC
:1008B4000B02019688306DE3960749F476DD5BDD23
:1008C400F9DBCAE0D2E066276993688305C08093A8
:1008D4000A0290930B0200C09F918F91CF91DF91F8
:1008E4006F916FBF6F911895BF93BFB7BF93DF939D
:1008F400CF93CF93DF9339DF00C0DF91CF91CF91B6
:10090400DF91BF91BFBFBF9118951895CFEFD1E28A
:10091400DEBFCDBF6B9A739A61E067B968B9662789
:1009240000C051E050930C0220E020930D02662792
:1009340060930E0260930F02609310028827992738
:10094400BB27CC27DD27662764BD6093A00062E047
:1009540065BD6093810062E06093A10060E16DB9C0
:100964006091690062606860609369006FEF60BBCA
:1009740061B9662761BB62B908E32FDC3EDC57DC52
:1009840008E32BDC3ADC4ADC08E327DC36DC08E34A
:1009940024DC33DC08E021DC30DC01E01EDC2DDC6F
:1009A40006E01BDC2ADC0CE018DC27DCFEDC82DB46
:1009B40060EF60930A0161E060937200789444CD23
:00000001FF
